:020000040800F2
:10000000500E00209D010008A5010008A70100086E
:10001000A9010008AB010008AD01000800000000C4
:10002000000000000000000000000000212800087F
:10003000B1010008000000001D2800082328000866
:10004000B7010008B7010008B7010008B7010008B0
:10005000B70100081F280008B7010008B701000811
:10006000B7010008B7010008B701000885020008C1
:10007000B7010008B7010008B701000891020008A5
:10008000B70100089D020008B7010008B701000889
:10009000B7010008B7010008B7010008B701000860
:1000A000B7010008B7010008B7010008B701000850
:1000B000B7010008B7010008B7010008351C0008A7
:1000C000B7010008411C0008B7010008B70100088B
:1000D000B7010008B7010008B7010008B701000820
:1000E000B7010008B7010008B7010008B701000810
:1000F000B7010008B7010008B7010008B701000800
:10010000B7010008B7010008B7010008B7010008EF
:100110003D290008B7010008B7010008B701000831
:10012000B7010008B7010008B7010008B7010008CF
:10013000B7010008B7010008B7010008B7010008BF
:10014000B7010008B7010008B7010008B7010008AF
:10015000B7010008B7010008B7010008B70100089F
:10016000B7010008B7010008B7010008B70100088F
:10017000B7010008B7010008B7010008000000003F
:10018000B7010008B7010008DFF80CD000F068F8EC
:10019000004800476D2E0008500E0020064880479A
:1001A00006480047FEE7FEE7FEE7FEE7FEE7FEE75C
:1001B000FEE7FEE7FEE7FEE7E92800088901000800
:1001C0002DE9F05F0546002092469B46884606468C
:1001D000814640241BE0284641464746224600F01F
:1001E0002FF853465A46C01A914110D3114618466B
:1001F000224600F016F82D1A67EB01084F462246FA
:100200000120002100F00DF817EB00094E41201EDF
:10021000A4F10104DFDC484631462A464346BDE8E6
:10022000F09F202A04DB203A00FA02F100207047F8
:100230009140C2F1200320FA03F319439040704724
:10024000202A04DB203A21FA02F00021704721FA2B
:1002500002F3D040C2F12002914008431946704792
:10026000064C074D06E0E06840F0010394E8070003
:1002700098471034AC42F6D3FFF78AFF24300008C9
:1002800044300008014800F075B800003009002033
:10029000014800F06FB80000F0090020014800F0AC
:1002A00069B800009009002001681823CAB2103A0A
:1002B000B2FBF3F2054B6FF30901032A9B5CC365A4
:1002C00000D9091D8165084670470000023000080A
:1002D00010B5014600208B698A6A4FF0C07453B193
:1002E000B3F5005F15D072B1012A0CD0022A0AD0F2
:1002F000032A09D104E01AB1012A06D0022A03D147
:10030000C96AC90100D5012010BDC96AA142FAD04D
:1003100010BD002AF7D0012AF2D0022AF3D0032A16
:10032000F3D010BD30B50468256825F4802525601C
:10033000046863608368402B036803D09960006899
:10034000C26030BD9A600068C16030BD90F8351061
:10035000022903D08021416501207047052180F8E2
:1003600035100068016821F001010160002070472C
:10037000406D70472DE9F84304464FF00009CDF871
:10038000009063484FF41651A56D0068B0FBF1F77B
:100390002E6894F85C10082000FA01F131420FD069
:1003A00021680A6852070BD50A6822F004020A6025
:1003B00094F85C108840A860606D40F001006065B2
:1003C00094F85C104FF0010808FA01F0304208D0B0
:1003D00021684969090604D5A860606D40F00200F3
:1003E000606594F85C1004208840304208D0216891
:1003F0000968890704D5A860606D40F00400606555
:1004000094F85C1010208840304218D021680968A8
:10041000090714D5A86020680168490304D500685D
:10042000000308D5A16C07E00168C90503D4016881
:1004300021F008010160216C09B12046884794F839
:100440005C1020208840304231D021680968C906FC
:100450002DD5A86094F8350005282068016806D0DD
:10046000490347D5006800031DD4616C1CE021F0EE
:10047000160101602068416921F080014161206C12
:1004800008B9A06C20B12068016821F00801016062
:1004900094F85C103F208840A86084F8349084F879
:1004A0003580216D1FE0E16B09B120468847606D02
:1004B00000282BD0606DC00714D0052084F83500CB
:1004C0002068016821F0010101600098401C009043
:1004D000B84203D820680068C007F6D184F8349089
:1004E00084F83580E16C002910D001B02046BDE8C9
:1004F000F04308470168C905D5D4016821F010010F
:10050000016084F8349084F83580CCE7BDE8F88346
:10051000200000202DE9F041044600F095F9064640
:100520005CB1002584F83450022084F8350020683E
:10053000016821F0010101600DE00120BDE8F081BA
:1005400000F082F9801B052805D920206065032072
:1005500084F83500F2E720680068C007F0D122680F
:10056000116820480140D4E901031843D4E9033657
:100570003343184363691843A3691843E369184375
:10058000236A18430843616A042903D1D4E90B1391
:1005900019430843106020684069666A20F007012B
:1005A00030460E43012704280CD1A06A0643E06AB6
:1005B00040B12046FFF78CFE20B14020606584F8F2
:1005C0003570BAE7206846612046FFF76DFE94F863
:1005D0005C203F2191408160656584F83570002082
:1005E000ACE700003F8010F02DE9F0410446866D35
:1005F00090F83400002501280DD0012084F8340043
:1006000094F835700020012F07D084F834000225BB
:100610002846BDE8F0810220FBE7022784F8357008
:1006200060652046FFF77EFE94F85C103F2088400E
:10063000B0602068016841F01601016020684169DE
:1006400041F080014161206C20B12068016841F0D7
:10065000080101602068016841F001010160D7E7ED
:1006600070B5044600F0F0F80546601C02D004485E
:100670000078044400F0E8F8401BA042FAD370BDB3
:10068000140000202DE9F84FDFF87CB100224FF074
:1006900001084FF0030A4FF00F090BF1040E00BFE1
:1006A0000B6808FA02F42340A3426ED14D68022D74
:1006B00001D0122D0ED1D50800EB850CDCF82050AE
:1006C0005607F70E09FA07F6B5430E69BE402E43EA
:1006D000CCF82060066855000F790AFA05FC07F08F
:1006E000030726EA0C06AF40374307604E68012E29
:1006F00005D0022E03D0112E01D0122E0ED1866805
:10070000CF6826EA0C06AF40374387604668A643A9
:100710000C79C4F30014944034434460C6688C6878
:1007200026EA0C06AC403443C4604C68E40065D54E
:10073000364C256845F480452560246822F0030581
:1007400004F480440094324C2E19D6F808489507DA
:100750002F0F09FA07F5AC432E4DA84201D1002511
:1007600024E02D4DA84201D101251FE02B4DA842C8
:1007700001D102251AE02A4DA84201D1032515E036
:10078000284DA84202D1042510E037E0264DA842AA
:1007900001D105250AE0254DA84201D1062505E035
:1007A000234DA84201D1072500E00825BD4025437F
:1007B000C6F80858DBF800405D464E689C43F603D7
:1007C00000D51C432C60DEF8004075464E689C4303
:1007D000B60300D51C432C600B4D08352C684E68C1
:1007E0009C43F60200D51C432C60074D0C352C6849
:1007F0004E689C43B60200D51C432C60521C102A44
:10080000FFF44EAFBDE8F88F003C01404438024091
:100810000030014000000240000402400008024095
:10082000000C024000100240001402400018024078
:10083000001C024042694A40426170470AB181612E
:1008400070470904FBE7000001488068704700001A
:1008500014000020704770472DE9F05F02680446DD
:10086000D2F818805569566890F83E007449DFF850
:10087000D0A1DFF8CCB1DFF8CC918F1C0AF17E0A51
:100880000BF13E0B102812D0402810D00D425BD047
:10089000B00559D5936920460021DB435B0700D59D
:1008A00001219269D243120648D5828947E015F0AA
:1008B000011F05D0B00503D5204601F0D1FC10E0A2
:1008C0005F48801D054205D0B00503D5606CC0B2FD
:1008D000106106E00D4204D0B00502D5204601F0BB
:1008E00045FC18EA090F14D015EA0A0F08D0700564
:1008F00006D53D4206D12046BDE8F05F01F0B2BB0F
:100900003D421FD0B0051DD52046BDE8F05F01F087
:1009100068BB15EA0B0F08D0700506D53D4206D11D
:100920002046BDE8F05F01F01ABB3D420AD0B00599
:1009300008D52046BDE8F05F01F0B2BA028B92B252
:10094000FFF789FFBDE8F09F3D480E30054206D015
:10095000B00504D52046BDE8F05F01F077BD18EA88
:10096000090F4FF0280134D015EA0A0F23D0700583
:1009700021D53D4221D194F83D302046628D002A98
:10098000E0D0426A541C4462046812782261428DAD
:10099000521E4285428D002AD4D1292BD2D1026821
:1009A000536823F4806353602122026380F83D1072
:1009B00000F0C7FAC6E73D42C4D0B005C2D5608D8D
:1009C0000028BFD0606A411C61622168007808611C
:1009D00031E015EA0B0F22D0700520D53D4220D121
:1009E00094F83D302046648D002CABD01469426AE7
:1009F000551C45621470428D521E4285428D002A5C
:100A0000A0D12A2B9ED10268536823F480635360DF
:100A10002222026380F83D1000F092FA92E73D42F4
:100A200090D0B0058ED5608D00288BD01169606A9A
:100A3000421C62620170608D401E608582E700008A
:100A40000200010004001000704790F83D0070475C
:100A500070B5040004D094F83D00002510B106E004
:100A6000012070BD84F83C50204600F0D5F92420C8
:100A700084F83D002068016821F00101016000F068
:100A8000C9FB33492268B0FBF1F15160314A636818
:100A9000934206D94FF4967359434FF47A73B1FBDE
:100AA000F3F12368491C1962616891420BD849002F
:100AB000B0FBF1F2C2F30B02042A01D2042019E0C8
:100AC000B0FBF1F016E0A3689BB301EBC10202EBAF
:100AD0000112B0FBF2F242F48042120530D04BB367
:100AE00001EBC10202EB0111B0FBF1F040F48040D8
:100AF00040F400402168C861D4E907010843216837
:100B00000860D4E90310084321688860D4E905012E
:100B100008432168C8602068016841F00101016054
:100B20002564202084F83D00256384F83E50002091
:100B300070BD00E006E001EB4102B0FBF2F2CCE751
:100B40000120D7E701EB4101B0FBF1F0D0E7000055
:100B500040420F00A0860100704770477047704701
:100B6000704700002DE9FF4F83B00025DDE91087B5
:100B70009A46934604460095FFF766FE064694F8AB
:100B80003D0020287ED1514846F2A8114FF020099F
:100B90000068B0FBF1F000EBC00101EB0010009029
:100BA0000098411E009108D244F8305F84F80D90FF
:100BB0002573032007B0BDE8F08F20688069C0432B
:100BC0008007EDD594F83C0001287DD0012084F801
:100BD0003C0020680168C90703D1016841F00101A8
:100BE00001602068016821F400610160222084F81E
:100BF0003D00402084F83E002564C4F824806785C9
:100C00003348E062608D20850004000C4FF023081B
:100C100042D0A16B2F48C863A16B2F48C864A06B5A
:100C20000564A06B4564A06B8564A06B05652168B5
:100C3000238D1031626AA06BFFF7D6FCCDE90086E8
:100C400053465A462046049901F037FB30B1206CD8
:100C500084F83C500428ACD10120ABE72068012F78
:100C600015D0416841F48051416020684169816933
:100C7000009184F83C50416841F4807141602068E3
:100C8000416800E020E041F4006141601AE0016841
:100C900021F480610160E8E7CDE9008653465A46B9
:100CA0002046049901F009FB0028D0D12068416951
:100CB00081690091016841F40071016084F83D9000
:100CC00084F83C50002075E7022073E720000020E4
:100CD0000000FFFFCF1C00089B1C00082DE9FF4F00
:100CE00083B09A46DDE9118793460446DDF84090CB
:100CF000FFF7AAFD064694F83D0020287DD1192370
:100D0000012243492046009601F035FC00287CD1A1
:100D100094F83C00012878D0012084F83C00206839
:100D20000168C90703D1016841F001010160206831
:100D3000016821F400610160212084F83D00402019
:100D400084F83E0000252564C4F82490A4F82A8085
:100D50003048E062608D2085CDE9007653465A46E2
:100D60002046049901F022FB80B3206C84F83C50AB
:100D7000042848D008E032463946204601F070FC8D
:100D800030B1206C042839D0032007B0BDE8F08FC3
:100D9000606A411C6162216800780861208D401EF4
:100DA00080B22085618D491E618521684A69D243E0
:100DB00052070BD468B1606A421C62620078086115
:100DC000208D401E2085608D401E6085208D00286E
:100DD000D1D132463946204601F0A6FB0028D0D1B9
:100DE00054F83D0B016841F400710160202004F8C3
:100DF0001E09E57765770020C7E706E020680168EF
:100E000041F4007101600120BFE70220BDE700004E
:100E1000020010000000FFFF2DE9F04306460068C5
:100E2000DFF8E4801221012203230427DFF8DCC06D
:100E3000374D002487B0404548D1C0208DE88F0051
:100E400069466046FFF71EFC286840F400102860E1
:100E50002868314D00F4001005902E4828604705A1
:100E6000C5E901744FF48068C5E903484FF48079FF
:100E70006C61C5E906492C6228466C62FFF74AFBA3
:100E800018B1822125A001F0D3FFB563AE632148DC
:100E9000294D9030E5E802074020A5E811012648D9
:100EA00045F81449C5E906492C626C62FFF732FB2C
:100EB00018B1942119A001F0BBFF756300221146FF
:100EC0001F20AE6300F0D6F81F2018E01B4CA04294
:100ED00017D14FF440608DE88F0069466046FFF7F8
:100EE000D1FB286840F4800028602868002200F4C4
:100EF000800005901146212000F0BCF8212000F070
:100F0000ADF807B0BDE8F083005400400004024093
:100F10004038024010600240300900202E2E2F532E
:100F200072632F73746D3332663478785F68616CE6
:100F30005F6D73702E630000900900200058004020
:100F40007047704702488168027811448160704799
:100F5000140000200B4810B5016841F400710160D5
:100F6000016841F480610160016841F480710160B1
:100F7000032000F09FF8002000F006F800F024F8AD
:100F8000002010BD003C024070B50D4D04464FF4EA
:100F90007A712878B1FBF0F00A490968B1FBF0F0EA
:100FA00000F023FB48B9102C07D200222146501E26
:100FB00000F060F800206C6070BD012070BD000082
:100FC0001400002020000020234808B5016841F4E7
:100FD00080410160006800F4804000901E48001FBE
:100FE000016841F080510160006800F0805000907D
:100FF000032000F05FF8002211466FF00B0000F0B4
:1010000039F8002211466FF00A0000F033F8002290
:1010100011466FF0090000F02DF800221146501F14
:1010200000F028F800221146101F00F023F80022DB
:101030001146901E00F01EF800221146501E00F0CE
:1010400019F800221146052000F014F8BDE8084008
:10105000052000F003B800004438024000F01F02F1
:10106000012191404009800000F1E020C0F800110A
:1010700070470000F0B40E4B1B680C46C3F302230C
:10108000C3F10705042D00D90425191D072901D234
:10109000002300E0DB1E012606FA05F1491E21406F
:1010A00099409E40761E16403143F0BC01F0A6BB2D
:1010B0000CED00E0064900F0070208684FF6FF0358
:1010C000184040EA0220034A1043086070470000BD
:1010D0000CED00E00000FA052DE9F0470E46050092
:1010E00065D0DFF81481D8F80000F7B200F00F00E7
:1010F000B04207D288F80070D8F8000000F00F0066
:10110000B04254D128683D4C810712D5400703D521
:10111000206840F4E05020602878000703D520685C
:1011200040F4604020602068A96820F0F000084387
:1011300020602878C0072DD0304968680839012818
:1011400012D0022813D0032811D00968890700297A
:101150002DDA216821F0030101432160FFF774FBC0
:10116000814641F2883A0EE009688903EFE7096891
:101170008901ECE7FFF768FBA0EB0901514502D9B3
:101180000320BDE8F0872068696800F00C00B0EB30
:10119000810FEFD1D8F80010404601F00F01B142A5
:1011A00007D90770006800F00F00B04201D001209D
:1011B000E7E72878400705D52068E96820F4E05083
:1011C000084320602878000706D52068296920F4A4
:1011D000604040EAC100206000F03CF82168084A05
:1011E000C1F30311515CC840064908600020FFF7B5
:1011F000CBFE0020C5E70000003C0240083802405A
:101200000A300008200000200148006870470000F4
:10121000200000200448054900680968044AC1F319
:101220008221515CC84070472000002008380240ED
:101230001A3000080448054900680968044AC1F3E7
:101240004231515CC84070472000002008380240FD
:101250001A300008154810B5006810F00C02144848
:1012600013D04110042A0FD0082A0ED10F4C241F8E
:101270002268236802F03F025B0207D52068C0F3B2
:101280008810A0FB010106E0084610BD2168C1F3EB
:101290008811A1FB00010023FEF792FF2168C1F332
:1012A0000141491C4900B0FBF1F010BD0838024073
:1012B0000024F4002DE9F84F050076D02878DFF8F7
:1012C000F8B2BE4CC00749D0DBF800105846C1F355
:1012D0008101012908D00068C0F3810002280AD1E9
:1012E000201D0068400206D52068800336D5686856
:1012F0000028E2D032E06868B0F5803F10D0B0F549
:10130000A02F206810D020F480302060206820F4C6
:10131000802020606868A0B1FFF796FA06460CE0CE
:10132000206840F48030F4E740F480202060F7E744
:10133000FFF78AFA801B642873D820688003F7D5EA
:101340000CE0FFF781FA064605E000BFFFF77CFAE4
:10135000801B6428F0D820688003F7D42878DFF851
:10136000608280074FF000093ED5DBF80010584638
:1013700011F00C0F09D00068C0F3810002280BD1D6
:101380008D48001F0068400206D42068800715D5EC
:10139000E868012809D111E0E868B8B10120C8F86F
:1013A0000000FFF751FA064605E002E1FFF74CFAAC
:1013B000801B0228C0D820688007F7D520682969DB
:1013C00020F0F80040EAC10020600DE0C8F800906D
:1013D000FFF73AFA064604E0FFF736FA801B0228C8
:1013E0001FD820688007F7D42878000722D5724ECE
:1013F000744869696C3671B101210160FFF724FA04
:10140000074604E0FFF720FAC01B022809D830681D
:101410008007F7D50EE0C0F80090FFF715FA0746F1
:1014200005E083E0FFF710FAC01B02287ED8306881
:101430008007F7D42878400768D5DFF87CA100271B
:101440000AF1380ADAF80000C0000BD4DAF800100C
:1014500041F08051CAF80010DAF80000012700F0CE
:1014600080500090584E3068C00510D4306840F469
:1014700080703060FFF7E8F9009005E0FFF7E4F9CD
:101480000099401A022851D83068C005F6D54A4E56
:10149000A868683601280FD00528306810D020F0E1
:1014A00001003060306820F004003060A868B8B1F6
:1014B000FFF7CAF900900FE0306840F00100F4E750
:1014C00040F004003060F7E7FFF7BEF90099411AD9
:1014D00041F28830814264D830688007F4D50EE04C
:1014E000FFF7B2F9009007E0FFF7AEF90099411A53
:1014F00041F28830814254D830688007F4D42FB14B
:10150000DAF8001021F08051CAF80010A869C0B3C1
:10151000DBF80010C1F3810102294AD002284846B5
:1015200007D0C8F86000FFF78FF900E039E0054602
:101530003AE04746C8F86000FFF786F9064604E03F
:10154000FFF782F9801B02282BD820688001F7D48E
:10155000D5E907010843A96A1C4A490802EB014181
:101560006A6A41EA8211084395F82C1040EA016149
:101570001148001F016001203866FFF765F9054634
:1015800005E014E0FFF760F9401B022809D8206845
:101590008001F7D50BE000BFFFF756F9401B02288A
:1015A00002D90320BDE8F88F20688001F4D4002020
:1015B000F8E70120F6E70000083802400038024052
:1015C00000004742800E4742007000400000FFFFCD
:1015D0004FF0E0210428086903D020F004000861DE
:1015E000704740F00400FAE7704710B5401EB0F1B4
:1015F000807F01D3012010BD4FF0E02460610F21F6
:10160000601701F0FBF80020A06107202061002096
:1016100010BD10B5FFF7E8FF10BD704770B5026848
:1016200004461068D168536910F00F0F50D003F0D2
:10163000010501F4907635435DD0C20705D0CA0597
:1016400003D5E26B42F00102E263420705D5DA07F7
:1016500003D0E26B42F00202E263820705D5DA07AB
:1016600003D0E26B42F00402E263020705D5DA0719
:1016700003D0E26B42F00802E263E26B002A33D04F
:10168000800604D5880602D5204601F073F920684B
:101690004069E16BC0F38010090700D428B32046ED
:1016A00001F05AF92068416949061AD5416921F0CB
:1016B00040014161606BA0B11B490165606BFEF7A1
:1016C00045FE002810D0606B016DBDE870400847F2
:1016D000830610D58B060ED52046BDE8704001F07C
:1016E00049B92046FFF799FF70BD2046FFF795FFE7
:1016F0000020E06370BD030606D50B0604D5204626
:10170000BDE8704001F0D2BA4006F3D54806F1D5E5
:10171000D168204621F04001D160202184F83910A1
:1017200000F087FA70BD00004929000870B5040078
:1017300004D094F83900002510B106E0012070BDF6
:1017400084F83850204600F023F8242084F839002B
:101750002068C16821F40051C160204601F050F9B1
:101760002068016921F4904101612068416921F0FC
:101770002A0141612068C16841F40051C160E563FC
:10178000202084F8390084F83A00002070BD000061
:1017900070B506460068204986B0884239D11F4896
:1017A0000025016841F4002101600068022100F475
:1017B000002005900320CDE900010121CDE90210B0
:1017C0000820049069461648FEF75CFF164C154841
:1017D00020604FF0006060604020C4E90205000115
:1017E000C4E90405A561E561256220466562FEF74E
:1017F00091FE20B14FF48A710CA001F019FB346303
:10180000002201213420A663FFF734FC3420FFF7C7
:1018100025FC06B070BD0000004C0040403802407E
:101820000000024070600240F00900202E2E2F536D
:1018300072632F73746D3332663478785F68616CCD
:101840005F6D73702E63000090F83A30202B1DD12D
:10185000D1B1CAB190F83830012B17D0816282859E
:10186000C2850021C163222280F83A2080F8381016
:1018700001684A6942F001024A610068C16841F4A6
:101880009071C160002070470120704702207047AE
:101890002DE9FF5FAF4800684068AF4CAD49204676
:1018A000A37942786579501C4031C0B28B54AB4269
:1018B00060707DD10E784FF0000B4FF0010A04F1FB
:1018C0000C02772E08D00423D51C722E2FD0642E44
:1018D0006FD0732E6ED01FE102230DE0CF5C2D2F51
:1018E00002D12678761C26702678022E13D0A67890
:1018F0009755761CA6705B1CE371DBB28342EDD377
:1019000095480C3001F028FB20812179934A01444D
:1019100089B26181C1E0CE187778AF42F0D0DFF8AC
:101920003CC226790CF80670761C2671E3E78E78A7
:10193000DFF82C82312E02D06E2E1AD0ECE0E3714B
:10194000401E06E0A578CE5C56556D1CA5705B1C4C
:10195000E371DBB28342F5DB7F480C3001F0FCFA27
:10196000208108EB0001642301227A4800F004F989
:10197000D2E0E371401E0BE0CF5C26782D2F28D0FB
:10198000022E29D0A6789755761CA6705B1CE371B1
:10199000DBB28342F0DB70480C3001F0DDFA2081CD
:1019A0006D480F3001F0D8FA60812189401A02E0B9
:1019B000BCE016E0C3E0401C82B2414464236548A9
:1019C00000F0DAF8002814D04FF4E77165A001F0B8
:1019D0002FFA761C2670D9E7E678AF55761CE670AC
:1019E000D4E78F786426312F04D06E2F36D0612F44
:1019F0005ED091E0E371401E06E0A578CF5C5755BC
:101A00006D1CA5705B1CE371DBB28342F5DB5248B1
:101A10000C3001F0A1FA20818DF80CB0FF2855465A
:101A20000FD803A88DE861004A4801232289A0212C
:101A3000A838FFF753F90028F3D10A20FEF710FE6B
:101A40006AE003A88DE86100424801232289A221AF
:101A5000A838FFF743F90028F3D1EEE7E371401E01
:101A60000BE0CF5C26782D2F1AD0022E1BD0A67843
:101A70009755761CA6705B1CE371DBB28342F0DBEA
:101A800035480C3001F068FA208133480F3001F0FE
:101A900063FA60810146374A208901F06BF93BE027
:101AA000761C2670E7E7E678AF55761CE670E2E72D
:101AB000DFF8C08000251027A8F110084FF6FF7945
:101AC000CDF800802348CDE9017609EA051201230B
:101AD000A021A838FFF702F90028F1D10A20FEF76B
:101AE000BFFD6D1C102DEBDB002546464F466420E4
:101AF00010210096CDE90110164807EA05120123CE
:101B0000A221A838FFF7EAF80028F0D10A20FEF752
:101B1000A7FD6D1C102DEADB84F801B084F800A04D
:101B200084F804B084F802B084F803B004B00A4921
:101B3000BDE8F05F0122891D0648FFF785BE4FF41E
:101B4000007564232A460649024800F015F800286B
:101B5000F7D172E7DC040020000000202E070020EF
:101B6000240000202E2E2F5372632F6D61696E2E7C
:101B700063000000340200202DE9F843044690F889
:101B800039001F4616460D46202850D1A5B19EB1FA
:101B900094F8380001284AD0012084F838004FF02A
:101BA0000008C4F83C80212084F83900FEF74CFE80
:101BB000A6848146E68426E00120BDE8F883E08C17
:101BC000401EE084A0684B46B0F5805F4FF00002F5
:101BD0004FF080012046009703D001F098F8E8B953
:101BE0000DE001F094F8C8B928882168C0F3080016
:101BF0004860206908B16D1C05E0AD1C03E0216858
:101C000015F8010B4860E08C0028D8D14B46002223
:101C100040212046009701F07AF808B10320CCE774
:101C2000202084F8390084F838800020C5E702209D
:101C3000C3E770470148FEF70FBE000034040020E0
:101C40000148FEF709BE00008804002010B5806B33
:101C500001680A6822F480620A6000214185426BB3
:101C60001165826B116590F83D302022602B80F861
:101C70003D2080F83E1007D001680A6822F001027A
:101C80000A60FEF7E1FE10BD016401680A6822F0F7
:101C900001020A60FEF7DEFD10BD10B5846BFEF791
:101CA00067FB022812D02068016821F4806101607E
:101CB00000206085202184F83D1084F83E00206CCF
:101CC00040F0100020642046FEF7BEFE10BD10B5A7
:101CD0000146806B90F83D3090F83E40896B0022C1
:101CE000212B09681CD0222B01D1202C18D00B6885
:101CF00023F480630B6001680B6843F400730B608E
:101D000001684B6823F480534B6001684B6823F4EF
:101D100000634B604285016C69B1FEF795FE10BD12
:101D20004B6823F400634B6042850068416841F4CE
:101D30004071416010BD202180F83D1090F83E10A8
:101D400080F83E20402902D0FEF707FF10BDFEF7C5
:101D500006FF10BD70B590F83D1004460025202602
:101D6000006829292DD02A292BD094F83D1060290C
:101D700004D04168090501D484F83D60256384F8E6
:101D80003E50016821F40061016020684168090546
:101D900037D5416821F400614160606B90F83520CF
:101DA0003349012A12D00165606BFEF7CFFA38B3D0
:101DB0002068016821F00101016084F83D60606BDA
:101DC0001CE02563282184F83D10DAE7A06B01654B
:101DD000A06BFEF7BBFA98B120684169C943490678
:101DE00004D40169606A421C626201702068016863
:101DF00021F00101016084F83D60A06B016D88470E
:101E00000FE094F83D1060291DD04169C94349068F
:101E100004D40169606A421C626201702046FEF7C8
:101E200013FE94F83D0028280CD1206C400709D5FA
:101E30001048E062256384F83D6084F83E502046F7
:101E4000FEF78AFE70BD84F83D6025644169C94390
:101E5000490604D40169606A421C6262017020680C
:101E6000016821F0010101602046FEF7F3FCD8E78C
:101E70004D1C00080000FFFF01684A69D24352056B
:101E80000CD46FF480624A6104210164002140F89F
:101E9000301F2022427301730120704700207047D9
:101EA00010B5C26A438D0168042B06D0438D032B05
:101EB00008D0438D022B19D00EE04A6822F48062CC
:101EC0004A6008E04A6822F480624A6001680A6851
:101ED00022F480620A6001680A69416A4B1C43620D
:101EE0000A70418D491E4185002010BD022A2AD06A
:101EF000012A28D00A6842F400720A6001680A695F
:101F0000416A4B1C43620A70418D491E418501683C
:101F10000A69416A4B1C43620A70418D491E418522
:101F200001684A6822F440724A60202180F83D101E
:101F30000021016390F83E2080F83E10402A0BD02B
:101F4000FEF70BFED0E70A6822F480620A6001689F
:101F50000A6842F48072D0E7FEF701FEC4E710B5CC
:101F600090F83D10222937D1418D032911D90168FC
:101F70000A69416A4B1C43620A70418D491E4185C2
:101F8000418D032928D10068416821F480614160B6
:101F900022E0012900D0F9B901680A6822F48062C0
:101FA0000A6001684A6822F4E0624A6001680A69CE
:101FB000416A4B1C43620A70418D491E41852021B4
:101FC00080F83D100021016390F83E2080F83E101B
:101FD000402A03D0FEF7C1FD002010BDFEF7BFFD73
:101FE000FAE710B5C26A90F83D10212921D1418D40
:101FF00049B1416A4A1C4262026809781161418D07
:10200000491E418515E020230021042A13D0082A07
:1020100011D012F5803F0ED00268546824F4E064B9
:1020200054601122026380F83E1080F83D30FEF7C4
:1020300095FD002010BD0268546824F4E0645460EB
:102040000268146844F400741460016380F83D3041
:1020500090F83E2080F83E10402AE8D1FEF780FD3F
:10206000E7E7000010B590F83D1090F83E30C26AE6
:10207000048D24B1212934D0402B30D074E02129A3
:10208000FAD120230021042A13D0082A11D012F5F6
:10209000803F0ED00268546824F4E064546011223A
:1020A000026380F83E1080F83D3000BFFEF756FD19
:1020B0005AE00268546824F4E064546002681468CA
:1020C00044F400741460016380F83D3090F83E20C1
:1020D00080F83E10402AE9D1FEF742FD44E0222973
:1020E00042D1418D21B190F83E10402906D032E016
:1020F0000068416821F48061416035E0016D31B1D3
:10210000016D012911D0016D022915D02CE0C16C9F
:102110000129816C02D0C1F3072108E00268C9B22D
:102120001161016D891C01651EE0816CC9B20268F4
:102130001161016D491CF6E790F83D10222904D089
:1021400090F83D10212906D00EE00068016841F4A6
:102150008071016008E0416A4A1C426202680978A5
:102160001161418D491E4185002010BD78B590F860
:102170003E50C26A036B90F83D6000240168222E35
:1021800006D1066D0EB9402D02D0056D25B107E0D0
:1021900048698869009058E00569B5F5404F08D056
:1021A000458D55B3458D012D0ED0428D022A37D075
:1021B0004DE04A698A6900920A6842F480720A60B6
:1021C000016D491C016540E012F5803F09D0042AE9
:1021D00020D0082A1ED0122B1CD0C26A022A08D195
:1021E00013E00A6822F480620A6001684A681205F6
:1021F00003D50A6822F480620AE04A698A6900927B
:102200000A6842F400720A601EE00A6842F48062C2
:102210000A6015E00A6822F480620A600168ECE74F
:10222000C26A022A13D00A6822F480620A60016836
:102230000A6842F400620A6001684A6812050AD41A
:1022400001684A69896900910465002078BD0A68BF
:1022500042F48062EFE74A6842F480524A60EFE756
:1022600090F83E10402909D00169B1F5804F10D097
:10227000016D99B1016D012915D01CE0016D19B9ED
:10228000416C01F0FE0114E0416CC9B241F0010162
:102290000FE090F83D102129F6D1F1E7416CF022D2
:1022A00001F4407103E0416CF12201F4407142EA13
:1022B000D11100680161002070472DE9F84F0446F4
:1022C000006889460B9D01689846174641F4806175
:1022D00001602068016841F48071016000954FF051
:1022E000011A0022514620460A9B00F044F9F0BB37
:1022F000216809F0FE0008610AF1010B2B465946DE
:1023000020460A9A00F068F918B1206C042812D00F
:102310003AE020684169806900902A4620460A997F
:1023200000F09EF950B1206C04282DD1206801687E
:1023300041F4007101600120BDE8F88FFEB2B8F1F0
:10234000010F09D02168380A08612A4620460A99F7
:1023500000F086F90028E6D1206806612A4620466A
:102360000A9900F07DF90028DDD1206800E00BE03B
:10237000016841F4807101600095002251462046B9
:102380000A9B00F0F8F808B10320D5E7216809F0AE
:10239000FF0040F0010008612B46594620460A9A8A
:1023A00000F01AF90028B0D1C6E700002DE9F84383
:1023B000044600680D46DDE9089701689846164610
:1023C00041F4807101604B4600224FF0011120461C
:1023D000009700F0D0F8E8B9216805F0FE00086128
:1023E0003B464A461849204600F0F6F828B1206CD2
:1023F00004280FD10120BDE8F88320684169806975
:1024000000903A464946204600F02AF920B1206C57
:10241000042813D00320EEE7F5B2B8F1010F09D07C
:102420002168300A08613A464946204600F018F90A
:102430000028ECD1206805610020DCE720680168F5
:1024400041F400710160D5E70200010038B590F851
:102450003D2001684B6823F4E0634B600368002172
:102460005C6900941C6844F001041C6003681C68EB
:1024700024F480641C6003685C6824050BD590F824
:102480003D40222C2BD090F83D402A2C27D0446B85
:10249000246864684485448DE4B15C69E44364075E
:1024A00007D41C69436A5D1C45621C70438D5B1E2A
:1024B000438503685C69E443640607D41C69436A86
:1024C0005D1C45621C70438D5B1E4385036C43F0AD
:1024D00004030364036C23B1FFF73CFC1FE0846B2F
:1024E000D6E72023282A09D02A2A07D0292A05D06E
:1024F000046B222C0CD0222A0AD010E0094AC262B6
:10250000016380F83D3080F83E10FEF725FB06E0C1
:10251000016380F83D3080F83E10FEF711FD002089
:1025200038BD00000000FFFF70B516460D4604469A
:102530001AE02046FFF7A0FC08B1012070BD681C1E
:1025400012D025B1FEF780F9801BA8420CD954F8AF
:10255000400F40F0200044F81009002020602021A6
:1025600061732073032070BD20684069C043400739
:10257000DFD4002070BD2DE9F0471E4690460D4681
:102580000446C1F30747DDF8209012E0701C10D01C
:102590002EB1FEF759F9A0EB0900B04209D900208D
:1025A00044F8300F20216173A07320730320BDE82D
:1025B000F0872068012F0AD0806925EA0000000416
:1025C000000C06D000214145E0D00020EFE7406933
:1025D000F3E70121F7E700002DE9F0479A4691461D
:1025E0000D46044600264FF02008C1F307472AE0B5
:1025F00020684069C043400512D42068016841F456
:102600000071016021686FF48060486104202064DB
:10261000266384F83D8084F83C600120BDE8F087A3
:10262000B9F1FF3F0FD0B9F1000F05D0FEF70CF95B
:10263000A0EB0A01494506D944F8306F84F80D80B3
:1026400026730320EAE72068012F07D0D0F818008E
:1026500025EA00000004000CE0D0C9E74069F7E774
:1026600070B516460D4604461AE02046FFF704FCF6
:1026700008B1012070BD681C12D025B1FEF7E4F846
:10268000801BA8420CD954F8400F40F0200044F8B9
:10269000100900202060202161732073032070BD89
:1026A00020684069C0430006DFD4002070BD0000F0
:1026B00070B51B4886B00024016841F080010160BC
:1026C000016801F080010591016841F0010101609C
:1026D000016801F001010591016841F0020101600A
:1026E000016801F002010591016841F008010160F3
:1026F00000680C4E00F008004FF470450590002271
:1027000029463046FEF79AF801200095CDE90104EC
:10271000694630460394FDF7B5FF06B070BD000072
:1027200030380240000C02400D4810B50B490160E2
:102730000C49416000214FF480428160C0E90312DE
:1027400041618161C1610162FEF782F9002804D014
:1027500040F21911044800F06BFB10BD005400401A
:1027600034040020A0860100EC2700080D4810B5B5
:102770000B4901600C49416000214FF480428160A7
:10278000C0E9031241618161C1610162FEF760F934
:10279000002804D040F22D11044800F049FB10BD80
:1027A0000058004088040020A0860100EC270008A3
:1027B0000D4810B50B4901604FF4E1314160002133
:1027C00081600C22C160C0E904128161C161FEF721
:1027D000ADFF002804D04FF4A07104A000F028FB46
:1027E00010BD0000004C0040DC0400202E2E2F53B2
:1027F00072632F6D61696E2E630000000907090E78
:10280000002806DA00F00F0000F1E02080F8141D27
:10281000704700F1E02080F800147047704770475F
:10282000704710B5FEF78EFBBDE81040FEF7F1BE15
:1028300030B5274893B00025016841F08051016010
:10284000006800F0805011902248016841F48041F6
:1028500001600068022400F4804011900120039080
:1028600010200490009406940820CDE90750A82079
:10287000CDE9090407200B906846FEF71BFD08B15F
:10288000ED210FE00CA90F2081E831004FF4A0509A
:102890000F904FF48050109005210CA8FEF71CFCFF
:1028A00018B1FB210CA000F0C3FAFEF7ADFC4FF409
:1028B0007A71B0FBF1F0FEF798FE0420FEF788FE77
:1028C00000221146501EFEF7D5FB13B030BD0000AC
:1028D00040380240007000402E2E2F5372632F6D3F
:1028E00061696E2E630000001048016841F47001B8
:1028F00001600F48016841F0010101600C4A0021AC
:102900000832116002680B4B1A400260031D0A4A2C
:102910001A60026822F48022026005480C300160CF
:1029200002495806803908607047000088ED00E0D1
:1029300000380240FFFFF6FE103000240148FEF789
:102940006DBE0000DC04002010B5806B0021C18545
:10295000C184FEF762FE10BD0168CA6822F490725D
:10296000CA6001684A6922F001024A61202180F8A8
:102970003A10704710B590F83A10222901D0022081
:1029800010BD8168B1F5805F11D00169002901682F
:102990001FD0496801F07F03816A4A1C82620B7074
:1029A000C18D491E0904090CC18518D026E00269B1
:1029B000816A002A0268526805D0D2B20A80816A10
:1029C000491C8162ECE7C2F308020A80816A891C13
:1029D000F7E74A68816A4B1C83620A70E0E7016886
:1029E000CA6822F49072CA6001684A6922F0010242
:1029F0004A61202180F83A10FEF74AFF002010BDFE
:102A00002DE9F04104460068016921F44052E16873
:102A1000114301612168C86849F20C62904323693F
:102A2000A268E5691A4363692B431A430243CA60EB
:102A30002168486920F44072A06910434861E16947
:102A40006425B1F5004F9748974A21684FF0320846
:102A50003FD0914201D081427CD1FEF7EBFB00EBED
:102A6000C00101EB001061688900B0FBF1F6FEF7D0
:102A7000E1FB00EBC00101EB001061688900B0FBD5
:102A8000F1F0B0FBF5F06FF01801484306EB800160
:102A900008EB0110B0FBF5F000F0F006FEF7CAFB02
:102AA00000EBC00101EB001061688900B0FBF1F0A0
:102AB000B0FBF5F006EB0016FEF7BCFB00EBC00127
:102AC00001EB001061688900B0FBF1F7FEF7B2FB83
:102AD000D2E0914201D081423DD1FEF7ABFB00EB49
:102AE000C00101EB001061684900B0FBF1F0B0FBE0
:102AF000F5F00601FEF79EFB00EBC00101EB0010B4
:102B000061684900B0FBF1F7FEF794FB00EBC001F0
:102B100001EB001061684900B0FBF1F0B0FBF5F08B
:102B20006FF01801484307EB800108EBC100B0FBD0
:102B3000F5F000F0F80006EB4006FEF77BFB00EB3B
:102B4000C00101EB001061684900B0FBF1F7FEF72E
:102B500071FB3CE055E0FEF75DFB00EBC00101EBD3
:102B6000001061684900B0FBF1F0B0FBF5F0060120
:102B7000FEF750FB00EBC00101EB0010616849005B
:102B8000B0FBF1F7FEF746FB00EBC00101EB0010D4
:102B900061684900B0FBF1F0B0FBF5F06FF018018F
:102BA000484307EB800108EBC100B0FBF5F000F0F3
:102BB000F80006EB4006FEF72DFB00EBC00101EB31
:102BC000001061684900B0FBF1F7FEF723FB00EB52
:102BD000C00101EB001061684900B0FBF1F0B0FBEF
:102BE000F5F06FF01801484307EB800108EBC100D6
:102BF000B0FBF5F000F00700216830448860BDE8C4
:102C0000F081FEF707FB00EBC00101EB00106168EB
:102C10008900B0FBF1F6FEF7FDFA00EBC00101EB15
:102C2000001061688900B0FBF1F0B0FBF5F06FF0C7
:102C30001801484306EB800108EB0110B0FBF5F0EA
:102C400000F0F006FEF7E6FA00EBC00101EB001021
:102C500061688900B0FBF1F0B0FBF5F006EB0016FF
:102C6000FEF7D8FA00EBC00101EB001061688900A3
:102C7000B0FBF1F7FEF7CEFA00EBC00101EB00105C
:102C800061688900B0FBF1F0B0FBF5F06FF018015E
:102C9000484307EB800108EB0110B0FBF5F000F0B2
:102CA0000F00A9E7001401400010014090F839100E
:102CB000212901D0022070478168B1F5805F016A47
:102CC0000BD04A1C0262026809785160C18C491E0F
:102CD0000904090CC1840ED017E009880268C1F309
:102CE0000801516001690029016A02D0491C016292
:102CF000ECE7891CFBE70168CA6822F08002CA6021
:102D00000068C16841F04001C160002070472DE9B2
:102D1000F041984617460E460446069D1DE0681C85
:102D20001BD02DB1FDF790FDA0EB0800A84214D9EF
:102D30002068C16821F4D071C1602068416921F028
:102D400001014161202084F8390084F83A00002014
:102D500084F838000320BDE8F0812068006836EA76
:102D6000000004D00020B842D9D00020F3E70120B1
:102D7000F9E700002DE9FE4F0546481B86B2914653
:102D80000A2001223446FF2915D882469046002C9D
:102D900049D0301B00EB09078DE8800501232A4646
:102DA000A0212248FDF79AFF0028F5D1641E6D1C72
:102DB000A4B2ADB2EBE7FF2D17D983469246002CA3
:102DC00031D0301BA5F5807700EB09088DE8000DA8
:102DD000BAB20123A2211548FDF780FF0028F5D1E2
:102DE000641E6D1CA4B2ADB2E9E78046924618E0BD
:102DF000FF2D01D9A22000E0A0208346301B00EB6C
:102E00000907CDE9007A01232A4659460748CDF83B
:102E10000880FDF763FF0028F3D1641E6D1CA4B287
:102E2000ADB2002CE4D1BDE8FE8F000034040020D8
:102E3000054D4FF4005421462846FDF7FBFCC82001
:102E4000FDF70EFCF7E70000000C024002E008C8A6
:102E5000121F08C1002AFAD170477047002001E014
:102E600001C1121F002AFBD1704700001CB5FEF7FC
:102E700071F8FFF7DDFCFFF71BFC2E48016841F4F9
:102E8000001101600068002200F40010009011465B
:102E90000B20FEF7EFF80B20FEF7E0F800221146BA
:102EA0000F20FEF7E7F80F20FEF7D8F800221146B2
:102EB0001120FEF7DFF81120FEF7D0F8FFF734FC01
:102EC000FFF754FCFFF774FC1B48006840680122C0
:102ED0001A491948FEF7B8FC194C4FF40075012344
:102EE0000022A02104F58260CDE90045FDF73AFEFD
:102EF00018B1AF2113A0FFF79BFF0F48A838FDF7CB
:102F0000A4FD2028F9D1134F4FF41046314638461E
:102F1000FDF790FC6420FDF7A3FB07480123002286
:102F2000A021A838CDE90045FDF71CFE0028F4D10A
:102F3000ECE7000030380240DC04002006000020EE
:102F4000240000202E2E2F5372632F6D61696E2E88
:102F500063000000000C02400FB50021ADF80C101A
:102F60008DF808100178A1F13002092A02D88DF8F5
:102F700000200CE0A1F14102052A01D8373904E014
:102F8000A1F16102052A02D857398DF80010417865
:102F9000A1F13002092A02D88DF804200CE0A1F139
:102FA0004102052A01D8373904E0A1F16102052A5E
:102FB00002D857398DF804108078A0F13001092922
:102FC00002D88DF808100CE0A0F14101052901D8C4
:102FD000373804E0A0F16101052902D857388DF88F
:102FE00008009DF804009DF8001000EB01109DF80A
:102FF000081001EB0010ADF80C00BDF80C0004B097
:1030000000BD0006101600061016000000000000AB
:103010000000010203040607080900000000010285
:1030200003040000443000080000002024000000D9
:103030004C2E000868300008240000202C0E0000F0
:103040005C2E000801000000000A000000000000E3
:10305000000000000000000001000000100000005F
:08306000000000000024F40050
:040000050800018965
:00000001FF
